:1000000075812012005312007012009B80FE78064A
:1000100079E57A007B007C057D557E0022EAA2E727
:1000200013FAEB13FBEC13FCED13FD22C3EB39FBCE
:10003000EA38FA0E22C3EB99FBEA98FA0E22C28C38
:10004000758A00758C00758940D28C22C28CA88C70
:10005000A98A2275D00012003E75181012000EED0C
:1000600030E00312002C12001DD518F312004C22B0
:1000700075D00812003E751810C312000EED30D76F
:100080000820E00D12002C800830E00512003580B9
:100090000012001DD518E612004C2275D010120077
:1000A0003E75180812000EC3ED335407B4000280E9
:1000B0003BB4010512002C8033B4020512002C80E1
:1000C0002BB4030812002C12002C8020B404081258
:1000D00000351200358015B40505120035800DB4C9
:1000E00006051200358005B40702800012001D12BB
:0900F000001DD518B312004C22CA
:00000001FF
