:1000000075812012005012006E80FE780679E57A24
:10001000007B007C057D557E0022EAA2E713FAEB07
:1000200013FBEC13FCED13FD22C3EB39FBEA38FAAA
:100030000E22C3EB99FBEA98FA0E22C28C758A0055
:10004000758C00758940D28C22C28CA88CA98A221A
:1000500075D00012003B75181012000BED30E00453
:100060001200290E12001AD518F21200492275D07A
:100070000812003B75181012000BED30D70820E075
:100080000D120029800830E00512003280001200B5
:080090001AD518E612004922FE
:00000001FF
