:1000000075812012004F12006D80FE780679E57A26
:10001000007B007C057D557E0022C3EA13FAEB13BA
:10002000FBEC13FCED13FD22C28C758A00758C006D
:10003000758940D28C22C3EB39FBEA38FA0E22C311
:10004000EB99FBEA98FA0E22C28CA88CA98A227539
:10005000D00012002875181012000BED30E00412C9
:1000600000360E12001AD518F21200482275D00878
:1000700012002875181012000BED30D70820E00D83
:10008000120036800830E00512003F800012001A8E
:07009000D518E6120048221A
:00000001FF
